:101F5C00495220636F64653A20004368616E6E6578
:101F6C006C3A20002020000A0044533138423230B1
:101F7C002053657269616C204E756D65723A200054
:101F8C0043757272656E742074696D653A20003009
:101F9C0031323334353637383941424344454600C3
:061FAC00300000000000FF
:10236100012C00042D42AF000004310000000041A7
:102371000048004400010000000042004500000147
:022381002B002F
:10247400EF1FAA0670011E4A600A00007D031DEDCD
:0424840060EE80FA8C
:012488002231
:0423FE007F057E00D9
:10240200EF1FAA0670011E4A600BE4FDEDC394FAA9
:0524120050EE0D80F703
:0124170022A2
:0A2522007E047D41DDFEDEFCDFFAE1
:01252C00228C
:05000600D288D2A822FF
:0A252D00D28AD2AAD2B3E4F52C2220
:0C250A00C2AC759840758E11759CE622DD
:082537008F993099FDC2992231
:102489001204F8FF600C122537740129F9E43AFAAD
:0324990080EE22B0
:0618BD008E178F188D1933
:1018C300781A7C007D007BFF7A1F79AC7E007F064F
:1018D3001204B0E4FBC3E517648094805015E51946
:1018E300B40A107F2D122537C3E49518F518E49533
:1018F30017F517E519B408057F30122537E519B434
:10190300100A7F301225377F78122537E5184517DF
:1019130070047F308053E51845176030AE17AF1859
:10192300AD197C001205A6749B2DF582741F3CF53E
:1019330083E493FF741A2BF8A607AE17AF18AD19FB
:101943007C001205A68E178F180B80CA1BD3EB647D
:10195300809480400EAF031B741A2FF8E6FF122504
:0C1963003780EA741A2BF8E6FF122537D3
:01196F002255
:0E24E100758C0B758ADC758901D2A9D28C220C
:03000B00021F01D0
:101F0100C0E0C0F0C083C082C0D075D000C000C0A6
:071F110004C005C006C00773
:101F1800758C0B758ADC052BE52BB42022752B00FC
:101F2800900001E0FCA3E0FDA3E0FEA3E02401FF94
:0F1F3800E43EFEE43DFDE43CFC90000112084253
:101F4700D007D006D005D004D000D0D0D082D0831F
:051F5700D0F0D0E032E3
:03001300021A20AE
:101A2000C0E0C0D075D000C000C004C005C006C072
:011A300007AE
:101A3100750900752C00C2AA7F0F12252230B3044C
:101A4100D2AA807520B3077F0112252280F6E4FC1B
:101A510075080030B3077F0112252280F620B307F5
:101A61007F0112252280F630B3127F011225220553
:101A710009E509C3941E40EFD2AA803D74372CF8C2
:101A8100C000E6C313D000F6E509C394084008740A
:101A9100372CF8E64480F67509000508E508C3947B
:101AA1000840B00CEC640470A7E53AF465396004B1
:091AB100D2AA8005752C01D2AA0D
:0F1ABA00D007D006D005D004D000D0D0D0E03275
:03000300022210C6
:10221000C0E0C083C082C0D075D000C002C005C07D
:1022200006C0077F027E00122402900048E070047E
:1022300004F08005900048E4F0D007D006D005D027
:0A22400002D0D0D082D083D0E0326B
:1008B400900001E0FCA3E0FDA3E0FEA3E0F5168EAA
:1008C400158D148C133084030209B11223FE308475
:1008D40003020D423084FD900001E0FCA3E0FDA37F
:1008E400E0FEA3E0C39516FFEE9515FEED9514FD0D
:1008F400EC9513FCE47B03FAF9F8C31207DE7B01E1
:100904007A007905501A900047E0F51BE4FD1210B7
:10091400D87B017A007905121D14E4900000800F41
:10092400900000E0FDE4F51B121970900000EFF058
:10093400E0FF3395E0FEEF25E0FFEE33FE74072F72
:10094400F58274003EF583E0F535A3E0F5369000BA
:1009540047E0FFAD36AC3512227F900000E0FF3354
:1009640095E0FEEF25E0FFEE33FE74072FF5827469
:10097400003EF583E0FEA3E0FFE4FCFD780F1208DF
:1009840016E47BA07A0FF9F812218CEF24E1FFE43E
:100994003EFEE43DFDE43CFC120321E4FBFA79C88D
:1009A40078421202178F308E2F8D2E8C2D308503B6
:1009B400020ABB1223FE308503020D423085FD90EE
:1009C4000001E0FCA3E0FDA3E0FEA3E0C39516FF55
:1009D400EE9515FEED9514FDEC9513FCE47B03FAFE
:1009E400F9F8C31207DE7B017A00790550429000C2
:1009F40047E0F51B7D011210D87B017A00790512BE
:100A04001D14E4900000F0E0FF3395E0FEEF25E0D4
:100A1400FFEE33FE74072FF58274003EF583E0F594
:100A240035A3E0F536900047E0FFAD36AC358031B4
:100A3400900000E0FD751B01121970900000EFF0AA
:100A4400E0FF3395E0FEEF25E0FFEE33FE74072F61
:100A5400F58274003EF583E0FCA3E0FD900047E0DE
:100A6400FF12227F900000E0FF3395E0FEEF25E0C7
:100A7400FFEE33FE74072FF58274003EF583E0FE2B
:100A8400A3E0FFE4FCFD780F120816E47BA07A0FC4
:100A9400F9F812218CEF24E1FFE43EFEE43DFDE48D
:100AA4003CFC120321E4FBFA79C878421202178F46
:100AB400308E2F8D2E8C2D308603020C1D1223FEBA
:100AC400308603020D423086FD900001E0FCA3E075
:100AD400FDA3E0FEA3E0C39516FFEE9515FEED958C
:100AE40014FDEC9513FCE47B03FAF9F8C31207DE5A
:100AF4004003020BA0751A01751B00751C00E4FF6E
:100B0400FE7D7A7C44AB30AA2FA92EA82D12010EAB
:100B140012035FEF241FFFEE34FFFEED34FFFDEC04
:100B240034FFFCE47BA07A0FF9F81206B3780F12B5
:100B340007EF8E1D8F1E7B017A0079051217F9903D
:100B44000000E0FF3395E0FEEF25E0FFEE33FE7496
:100B5400072FF58274003EF583E0F535A3E0F53602
:100B6400AE35AF36E4FCFD780F120816E47BA07AAC
:100B74000FF9F812218CEF24E1FFE43EFEE43DFD81
:100B8400E43CFC1203218F308E2F8D2E8C2D90008F
:100B940047E0FFAD36AC3512227F807D900047E000
:100BA400B4031DE4FFFE7DD87C42AB30AA2FA92EEE
:100BB400A82D1202B47009F530F52F752EAF8022DE
:100BC400900047E0B40120E4FFFE7DB67C42AB30E8
:100BD400AA2FA92EA82D1202B4700CF530F52F758A
:100BE4002E98752D42801BAF30AE2FAD2EAC2D7BD1
:100BF400CD7ACC79CC783D12001D8F308E2F8D2E7E
:100C04008C2DAF30AE2FAD2EAC2D12035FAD07ACE3
:100C140006900047E0FF122006308703020D4212BF
:100C240023FE308703020D423087FD900001E0FC73
:100C3400A3E0FDA3E0FEA3E0C39516FFEE9515FE29
:100C4400ED9514FDEC9513FCE47B03FAF9F8C3125B
:100C540007DE506D751A01751B00751C007B017A47
:100C6400007905121D9A900000E0FF3395E0FEEF35
:100C740025E0FFEE33FE74072FF58274003EF58302
:100C8400E0F535A3E0F536AE35AF36E4FCFD780F7C
:100C9400120816E47BA07A0FF9F812218CEF24E1F4
:100CA400FFE43EFEE43DFDE43CFC1203218F308E64
:100CB4002F8D2E8C2D900047E0FFAD36AC350222EF
:100CC4007F900047E0B4031DE4FFFE7DAF7C42ABA0
:100CD40030AA2FA92EA82D1202B47009F530F52FD1
:100CE400752ED88022900047E0B40120E4FFFE7DF9
:100CF400987C42AB30AA2FA92EA82D1202B4700CF6
:100D0400F530F52F752EB6752D42801BAF30AE2F02
:100D1400AD2EAC2D7BCD7ACC79CC783D1200198FD9
:100D2400308E2F8D2E8C2DAF30AE2FAD2EAC2D12DC
:0E0D3400035FAD07AC06900047E0FF122006FB
:010D4200228E
:100D43007BFF7A1F795C122489AE39AF3A7D10128A
:100D530018BD7F0A122537AC37AD38AE39AF3A121A
:100D6300084E0DE7000000000DEE000000010DF637
:100D7300000000020DFE000000030E060000000448
:100D83000E0E000000050E16000000060E1E0000E9
:100D930000070E26000000080E2E000000090F8138
:100DA300000000110F96000000250E77000000449C
:100DB3000EB7000000470E67000000770E360000F4
:100DC30000780E52000000880F1C00000445102F0D
:100DD300000004560E58000006540FCB000007888D
:100DE300000010D4E4900000020ECC9000007401C7
:100DF300020ECC9000007402020ECC90000074032B
:100E0300020ECC9000007404020ECC900000740516
:100E1300020ECC9000007406020ECC900000740702
:100E2300020ECC9000007408020ECC9000007409EE
:100E3300020ECC900048E0700404F08018E49000A7
:100E430048F01217278F348E338D328C3180001285
:100E530023E10210D4900047E0FFAD36AC351222F7
:100E63004A0210D47B017A007905900047E0F51B14
:100E73007D01800E7B017A007905900047E0F51B28
:100E8300E4FD1210D87B017A007905121D14E49059
:100E93000000F0E0FF3395E0FEEF25E0FFEE33FEC8
:100EA30074072FF58274003EF583E0F535A3E0F572
:100EB300360210C87B017A007905900000E0FD75C9
:100EC3001B01121970900000EFF0E0FF3395E0FE74
:100ED300EF25E0FFEE33FE74072FF58274003EF535
:100EE30083E0F535A3E0F536AE35AF36E4FCFD78A7
:100EF3000F120816E47BA07A0FF9F812218CEF2465
:100F0300E1FFE43EFEE43DFDE43CFC1203218F30AF
:100F13008E2F8D2E8C2D0210C87B017A00790590BF
:100F23000000E0FDE4F51B121970900000EFF0E003
:100F3300FF3395E0FEEF25E0FFEE33FE74072FF558
:100F43008274003EF583E0F535A3E0F536AE35AFA8
:100F530036E4FCFD780F120816E47BA07A0FF9F84B
:100F630012218CEF24E1FFE43EFEE43DFDE43CFC72
:100F73001203218F308E2F8D2E8C2D0210C8AF308F
:100F8300AE2FAD2EAC2D7BCD7ACC79CC783D120033
:100F93001D8013AF30AE2FAD2EAC2D7BCD7ACC7927
:100FA300CC783D1200198F308E2F8D2E8C2DAF30C3
:100FB300AE2FAD2EAC2D12035FAD07AC06900047EC
:100FC300E0FF1220060210D4751A01751B00751C70
:100FD300007B017A007905121D9A900000E0FF332F
:100FE30095E0FEEF25E0FFEE33FE74072FF58274E4
:100FF300003EF583E0F535A3E0F536AE35AF36E4D4
:10100300FCFD780F120816E47BA07A0FF9F8122181
:101013008CEF24E1FFE43EFEE43DFDE43CFC1203DF
:10102300218F308E2F8D2E8C2D0210C8751A0175CD
:101033001B00751C00E4FFFE7D7A7C44AB30AA2FB5
:10104300A92EA82D12010E12035FEF241FFFEE3409
:10105300FFFEED34FFFDEC34FFFCE47BA07A0FF9D7
:10106300F81206B3780F1207EF8E1D8F1E7B017ADD
:101073000079051217F9900000E0FF3395E0FEEFC9
:1010830025E0FFEE33FE74072FF58274003EF583EF
:10109300E0F535A3E0F536AE35AF36E4FCFD780F69
:1010A300120816E47BA07A0FF9F812218CEF24E1E1
:1010B300FFE43EFEE43DFDE43CFC1203218F308E51
:1010C3002F8D2E8C2D900047E0FFAD36AC351222CC
:0510D3007FE4F52C2272
:061E90008B138A14891572
:101E9600E4F516AE02AF01EF4E605FE4F5167BFF88
:101EA6007A1F7966122489AF16EF3395E0FE7D0A14
:101EB6001218BD7BFF7A1F7970122489AB13E515C2
:101EC6002402F9E43514FAAF16EF3395E0FEEF2558
:101ED600E0FFEE33FEE92FF9EA3EFA120631FFAED5
:101EE600F07D101218BD7BFF7A1F797312248905C5
:0A1EF60016C3E5166480949F40A413
:011F000022BE
:10127E00E4F50AC2AFD286D287D284D285D293F554
:10128E003AF539F538F53712000E12000612252DF3
:10129E0012251612250A1224E112254220930690D9
:1012AE0000477401F0D2AF7B007A00790B1222B4A2
:1012BE007BFF7A1F7975122489E4F50A740B250ACF
:1012CE00F8E6FF7E007D101218BD7F20122537052F
:1012DE000AC3E50A6480948840E27F0A1225371219
:1012EE0017278F348E338D328C3112205A8E358FD4
:1012FE0036E5364535603AAE35AF36E4FCFD780F4F
:10130E00120816E47BA07A0FF9F812218CEF24E173
:10131E00FFE43EFEE43DFDE43CFC1203218F308EE3
:10132E002F8D2E8C2D900047E0FFAD36AC3512225E
:10133E007F7B017A007905121AC9E52C6003120D24
:10134E0043E58054F064F060031208B4E47B1EFAA7
:10135E00F9F8900001E0FCA3E0FDA3E0FEA3E0FF9E
:10136E0012073EAC00AD01AE02AF03E4FBFAF9F892
:10137E00C31207DE70737BFF7A1F798C122489905B
:10138E000003E0FEA3E0FF7D0A1218BD7F0A1225BE
:10139E00377B017A007905121E90900048E070109C
:1013AE001217278F348E338D328C311224BF803931
:1013BE00900048E0B40132E47B587A02F9F89000CC
:1013CE0001E0FCA3E0FDA3E0FEA3E0FF12073EACAC
:1013DE0000AD01AE02AF03E4FBFAF9F8C31207DE6B
:1013EE007007AF36AE35121BFC900048E0700EAFA2
:1013FE0034AE33AD32AC31121419021348AF30AEE5
:0B140E002FAD2EAC2D12141902134854
:10238400D2D730D71DC2977FE07E01122474D29732
:102394007F3C7E00122474A2977FA47E01122474D1
:0323A40080E022B4
:1022E700E4F51AF519E51AC313F51AC2970000D2D7
:1022F700970000309703431A807F3C7E00122474B6
:0D2307000519C3E5196480948840DAAF1A07
:0123140022A6
:022315008F191E
:10231700E4F51AC2970000E519C313F51992977FE0
:102327003C7E00122474D297051AC3E51A64809480
:032337008840E0FB
:01233A002280
:0622B4008B138A1489154A
:1022BA00E94A4B60271223847F33122315E4F5166B
:1022CA001222E7AB13AA14A915851682758300EFAB
:0C22DA001205720516E516C3940840E4D6
:0122E60022D5
:1024AE001223847FB41223153097037F01227F00FD
:0124BE0022FB
:1024BF001223847FCC1223157F441223153097FDEE
:0124CF0022EA
:10172700E4F513F514FFF518F517F516F51512235B
:10173700847FCC1223157FBE1223151222E78F1444
:101747001222E7EFC454F0FFE514C4540F4FF5130A
:10175700AB18AA17A916A815C000C001C002C0037C
:10176700FC12032BD003D002D001D00012001D8F32
:10177700188E178D168C15E51430E311E4FBFAF972
:10178700783F12001D8F188E178D168C15E51430B3
:10179700E21AAF18AE17AD16AC15E4FBFA798078EC
:1017A7003E12001D8F188E178D168C15E51430E12B
:1017B70019AF18AE17AD16AC15E4FBFAF9783E125F
:1017C700001D8F188E178D168C15E51430E01AAF93
:1017D70018AE17AD16AC15E4FBFA7980783D120008
:1017E7001D8F188E178D168C15AF18AE17AD16AC4A
:0117F70015DC
:0117F80022CE
:041E18008F138D1483
:101E1C00D3E513648094FD5009C3E51464809449A0
:101E2C0050037FFF22D3E5136480F8E51464809897
:101E3C0040037FFF22EBC394094006EBD3940C4084
:101E4C00037FFF22EB24F6600F146011146013243F
:101E5C0003700F75151F800D75153F800875155F84
:101E6C00800375157F1223847FCC1223157F4E12AD
:101E7C002315AF13122315AF14122315AF1512230C
:031E8C00157F00BF
:011E8F002230
:1021D0008B458A4689471223847FCC1223157FBE04
:1021E0001223151222E71222E71222E7AB45AA4674
:1021F000A947EF1205601222E7AB48AA49A94AEFA6
:102200001205601222E7AB4BAA4CA94DEF02056004
:1024D0001223847FCC1223157F481223153097FDD9
:0124E00022D9
:03253F007F0022F8
:0C2516007B0A7DE27F19121E180224BF10
:10249C00D714E5B536B3F315F7B777F2C3F4E363A6
:0224AC00082006
:10164400E4F556F558C3EF64809480500AEFF4042F
:10165400F55775560180028F57D280D281D282D23B
:1016640083E557700D90249C93F5A0C2807F0402FB
:101674001721E557606175F00A1204D6AFF0EF3315
:1016840095E0FE749C2FF58274243EF583E493F573
:10169400A0E55814601014601714601E240370220F
:1016A400C280D2818004D280C281D282D28380124D
:1016B400D280D281C282D2838008D280D281D28267
:1016C400C283E55775F00A1204D6F55705587F040E
:1016D4007E00122402809BE55664017045E558643F
:1016E40004603F9024ADE493F5A0E5581460101411
:1016F400601714601E24037029C280D2818004D232
:1017040080C281D282D2838012D280D281C282D21C
:10171400838008D280D281D282C2837F037E00126A
:0217240024029D
:0117260022A0
:10155600E4F54EF551C3EE64809480500EC3E49FCB
:10156600F550E49EF54F754E0180048E4F8F50D294
:1015760080D281D282D283E550454F700B90249C55
:1015860093F5A0C28002163CE550454F6064AE4F0D
:10159600AF507C007D0A1205FB749C2DF5827424E5
:1015A6003CF583E493F5A0E551146010146017141C
:1015B600601E24037022C280D2818004D280C28140
:1015C600D282D2838012D280D281C282D283800814
:1015D600D280D281D282C283AE4FAF507C007D0AC8
:1015E6001205FB8E4F8F5005517F047E0012240298
:1015F6008096E54E64017045E5516404603F902491
:10160600ADE493F5A0E55114601014601714601E44
:1016160024037029C280D2818004D280C281D28202
:10162600D2838012D280D281C282D2838008D280B5
:0D163600D281D282C2837F047E0012240282
:011643002284
:10141900E55C24FCF55CF8120836E55C24FCF55C17
:10142900F8E4F6E55C2403F8E4F6FFFE7D207C4150
:10143900E55C2404F812082912010E12035FA85C66
:1014490008A60608A607A85C08E6FE08E6FFC3EE9C
:10145900648094805011C3E49FFFE49EA85C08F661
:1014690008A607A85C7601D280D281D282D283A84D
:101479005C08E6FE08E6FF4E60797C007D0A1205ED
:10148900FB749C2DF58274243CF583E493F5A0E567
:101499005C2403F8E614601014601E14602524030C
:1014A9007029C280D281800B9024ACE49342A0D2EF
:1014B90080C281D282D2838012D280D281C282D26A
:1014C900838008D280D281D282C283A85C08C000FE
:1014D900E6FE08E6FF7C007D0A1205FBD000A606A1
:1014E90008A607E55C2403F8067F507E0012240253
:1014F900021478A95CE76401704CE55C2403F8E602
:10150900FFC364809483503E9024ADE493F5A0EF2B
:1015190014601014601714601E24037029C280D24D
:10152900818004D280C281D282D2838012D280D2B9
:1015390081C282D2838008D280D281D282C2837F43
:06154900047E00122402E2
:07154F00E55C2408F55C22B5
:041B70008E598F5AA1
:101B7400E4F55BD280D281D282D283E55A45597092
:101B84000F90249C93F5A0C2807F047E000224025F
:101B9400E55A455960617E00E55A540F249CF5824C
:101BA400EE3424F583E493F5A0E55B14601014602F
:101BB4001714601E24037022C280D2818004D28054
:101BC400C281D282D2838012D280D281C282D28355
:101BD4008008D280D281D282C283E559C4F854F0FD
:101BE400C868F559E55AC4540F48F55A055B7F0493
:071BF4007E0012240280991B
:011BFB0022C7
:10243000D291D2927F057E00122474C2917F057ED4
:0724400000122474C2922275
:10244700C291D2927F057E00122474D2917F057EBD
:0724570000122474C292225E
:05000E00C2920224472C
:0E24EF00C291D2927F057E00122474C2922206
:10233B00E4F529D291D2927F05FE12247430910BD1
:10234B00E529C394FF5004052980F2E529B4FF0366
:05235B007F00227F015C
:01236000225A
:10214700E4F5298F2AF529E52A25E0F52AC2927FA9
:10215700057E0012247492917F057E00122474D2AA
:10216700927F057E001224740529C3E529648094B3
:102177008840D4C2927F057E00122474D2917F05D5
:052187007E000224743B
:1020AD00E4F526F527C2927F05FE122474D291E441
:1020BD00F526D2927F057E00122474A291E433425C
:1020CD0027C2927F057E00122474E52725E0F527AF
:1020DD000526C3E5266480948840D7C2927F057E8D
:0F20ED0000122474D2917F057E00122474AF2755
:0120FC0022C1
:0D24FD00E4F5C7F5C5F5C6F5C475C380222A
:0423A700AF05AE04CC
:1023AB0075C78075C5018FC4EEFF8FC375C65A758F
:0823BB00C6A500AFC21224FD0B
:0123C30022F7
:1024180075C78075C5028FC4EEFF8FC38DC275C6A0
:082428005A75C6A5000224FD4F
:10245E0075C78075C5038FC4EEFF8FC375C65A75D9
:06246E00C6A5000224FDDA
:061AC9008B138A1489153D
:101ACF00E4FDFC8B168A178918F519C3EC940240B4
:101ADF0003021B6D1223A7AB160518E518AA177082
:101AEF0002051714F9EF1205600DBD00010C12234A
:101AFF00A7AB160518E518AA177002051714F9EF0A
:101B0F001205600DBD00010CAB13AA14A915120626
:101B1F0031FFAEF0BEBE3DBFBE3AED24FEF553EC35
:101B2F0034FFF552E5532440FFE43552FEC3ED9FD9
:101B3F00EC9E502A0DEDAE0470010C14FF1223AB76
:101B4F00AB160518E518AA177002051714F9EF124E
:101B5F00056080D0743E2DFDE43CFC021ADA7F0153
:011B6F002253
:101D14008B178A18891985521A85531BAE02AF0195
:101D2400EF4E7002FF22E4FDAF53AE52122418E5C9
:101D3400532401FFE43552FE12241874402553F550
:101D440053E43552F552E4B55310E552B4020BE4B2
:101D5400FFFE12245EE4F552F55385521A85531B97
:101D6400E5532440FFE43552FEC3E51B9FE51A9E6C
:101D74005023AB170519E519AA187002051814F9B0
:101D84001204F8FDAF1BAE1A122418051BE51B70D4
:051D9400CF051A80CB11
:011D99002227
:0617F9008B178A18891904
:1017FF00AB1AAA1BA91C1204F8F51F75220075233A
:10180F000075241DC3E51F6480949F40030218A335
:10181F00AB17E5192402F9E43518FAAF1FEF33952A
:10182F00E0FEEF25E0FFEE33FEE92FF9EA3EFA1274
:10183F000631F47003E5F0F47055E55325E0FFE54C
:10184F005233FEE92FF9EA3EFEC3E99519FFEE95F3
:10185F0018FE7C007D021205FB8E208F21AB22AA81
:10186F0023A9241204F8FD1224180521E521700282
:10187F00052074012524F524E43523F523AB22FA42
:10188F00A9241204F8FDAF21AE20122418800505FB
:10189F001F021813C3E51F6480949F500EAB1AAA42
:0D18AF001BA91CE51F1205607F01227F00B0
:0118BC002209
:061D9A008B178A1889195D
:101DA000E92402F9E43AFAC003C002C001AB1AAA5E
:101DB0001BA91C1204F8FF3395E0FEEF25E0FFEEAF
:101DC00033FED001D002D003E92FF9EA3EFAE4F560
:101DD000F0120694E55325E0FFE55233FEE92FF9B2
:101DE000EA3EFEC3E99519FFEE9518FE7C007D02E0
:101DF0001205FBAB07AA06E4FD1224180BBB000179
:101E00000AAF03AE02E4FD122418AB1AAA1BA91CE8
:071E1000740112053E7F0181
:011E170022A8
:061970008B178A1889198B
:10197600E51B6045ED04FCBC1F02E4FCC3EC64807F
:10198600949F507BAB17E5192402F9E43518FAEC5D
:10199600FF3395E0FEEF25E0FFEE33FEE92FF9EA8F
:1019A6003EFA120631FFAEF04E70030C80CEEFF415
:1019B6007002EEF47049FC8046ED14FCC36480941A
:1019C6008050027C1EC3EC648094804032AB17E5E5
:1019D600192402F9E43518FAECFF3395E0FEEF25F9
:1019E600E0FFEE33FEE92FF9EA3EFA120631FFAECA
:1019F600F0F47002EEF46004EF4E70031C80C6E54E
:101A06001B6005EC641F600CE51B700BC3EC648067
:091A1600948050037F0022AF040C
:011A1F0022A4
:041BFC008E138F14A1
:101C0000E4F515F516FB7A007915855417855518F6
:101C1000AF18AE171223ABEF1205600518E5187068
:101C2000020517FFAE171223AB900001EF120572E9
:101C30000518E51870020517E516B51408E515B581
:101C400013037F0022E4B51812E517B4040D7517CD
:101C500002751800AF18AE1712245E7B007A007967
:101C6000131204F8FDAF18AE17122418E51824015A
:101C7000FFE43517FE900001120511FD12241885AE
:071C800017548518557F0180
:011C8700223A
:10205A00E4F513F514FB7A007913F515F516FD7CF2
:10206A0002C3EC9404502D1223A7EF1205600DBD94
:10207A0000010C1223A7900001EF1205720DBD009A
:10208A00010CE514F47003E513F460088513158553
:10209A00141680CDED24FEF555EC34FFF554AE153B
:0220AA00AF166F
:0120AC002211
:1023C400D3EF648094834012ED648094B1400BD3C6
:0D23D400ED648094BE50037F01227F002243
:0820FD008B218A2289238D2426
:10210500E4F5251224307FC112214712233BEF60ED
:102115002EE4F525C3E5246480F8E5256480985010
:102125001E1220ADAB21AA22A923E525FD3395E09A
:102135008D82F583EF1205721224EF052580D502F5
:0221450024472D
:0A1FB200E4F544FB7A0079407D0558
:081FBC008B248A2589268D275C
:101FC400E4F5281224307FC012214712233BEF602E
:101FD4002EE4F528C3E5276480F8E528648098504A
:101FE4001EAB24AA25A926AF28EF3395E08F82F5EE
:101FF40083120511FF1221471224EF052880D50210
:0220040024476F
:012542002276
:1023E1007E007F057D007B007A00794012088843DA
:0D23F10040804343487B00121FB67F01224D
:10224A008F138C148D157E007F057D007B007A002C
:10225A007940120888E514FFEF543FF540E515F57B
:10226A0041754220754311E513B40103434320121B
:05227A001FB27F0122EC
:022006008F1732
:10200800E4F518F519ED241FFFEC34FFFE7C0F7D75
:10201800A0120594EF780FCEA2E713CE13D8F8F5E7
:10202800198E187E007F057D007B007A00794012AA
:102038000888E518FFEF543FF540E519F54175426A
:1020480040754311E517B40103434320121FB27FC3
:012058000186
:012059002264
:10227F008F218C228D237E007F057D007B007A00CD
:10228F007940120888E522FFEF543FF540E523F52A
:10229F0041754240754311E521B4010343432012B8
:0522AF001FB27F0122B7
:0810D8008B178A1889198D1A83
:1010E000E4F520E51B6016E51A6009E47F217E2403
:1010F000FDFC801DE47F487E2BFDFC8014E51A601A
:1011000009E47FD47E29FDFC8007E47F9B7E33FDCC
:10111000FC8F1F8E1E8D1D8C1C7E007F057D007B2D
:10112000007A0079401208887E007F057D007B00F0
:101130007A00793B1208887E007F407DFFAB17AABA
:1011400018A919120888AB17AA18A91974BEF5F0C6
:10115000120694AF1FAE1EAD1DAC1C78081208021B
:10116000EF4440FF8F40E51FFF8F41754220E51A95
:1011700060054342808003434210E51BB4010343F2
:101180004320754311121FB27F327E001224027B6E
:10119000007A00793B7D051220FDE53B5480FF334A
:1011A00095E04F60E3E53D547FFDE53E7804A2E71E
:1011B00013D8FBFF1223C4EF6052E53B543FFF33CB
:1011C00095E0EFFEAD3CED3395E04EFEEDFFEE33E6
:1011D00095E08F1F8E1EF51DF51CC3E520648094DD
:1011E0009E5029AB17E5192402F9E43518FAAF200F
:1011F0000520EF3395E0FEEF25E0FFEE33FEE92F0B
:10120000F9EA3EFAE51E851FF0120694E51A60170A
:10121000E51F240CF51FE4351EF51EE4351DF51DF4
:10122000E4351CF51C8019C3E51F940CF51FE51E61
:101230009400F51EE51D9400F51DE51C9400F51CB9
:10124000AF1FAE1EAD1DAC1C78081208028F40E522
:101250001FFFE48F41FB7A0079407D02121FBCE53D
:101260003B30E603021188AB17AA18A919900002B7
:0D12700012065CFDACF0AF1B12227F7F0167
:01127D00224E
:100016000203CBE86480F8E933E83360110460F04A
:10002600ED33EC337009E8FCE9FDEAFEEBFF220450
:1000360060DED3EB9FEA9EE99DE8C2E78CF0C2F74B
:1000460095F0400CE8CCF8E9CDF9EACEFAEBCFFB17
:1000560012039685D0F05804700320D5B3E80470D7
:10006600075002B2D50203D592D5EC0460F7E4CC72
:10007600C0E0C398F8603B94186008400DD0E0FBE0
:100086000203ADE4FBFAC9FC8028E830E406E4C9C3
:10009600FBE4CAFCE830E305E4C9CACBFCE8540734
:1000A6006010F8C3E913F9EA13FAEB13FBEC13FC3F
:1000B600D8F130F52FC3E49CFCEF9BFFEE9AFEEDE2
:1000C60099FDD0E0FBEF4E4D4C701222DB0302038C
:1000D600D2EC2CFCEF33FFEE33FEED33FDED30E7D3
:1000E600EB0203ADEF2BFFEE3AFEED39FDD0E0FB60
:1000F60050130BBB00030203D5ED13FDEE13FEEF09
:0801060013FFEC13FC0203AD32
:10010E00EC4D6011E8497017ED33EC3304600DE4EB
:10011E00FCFFFEFD22E933E8330470F80203CB1234
:10012E00039658046009E4CC248150062850090235
:10013E0003D52840030203D2C0E0EB4A7044B980D5
:10014E0006D0E0FB0203C1EF4E701CBD8008EBFF32
:10015E00EAFEE9FD80EBE98DF0A4FEE5F00201F781
:10016E00E9CDF9EAFEEBFFEF89F0A4FCE5F0CE89CC
:10017E00F0A42EFFE435F0CD89F0A42DFEE435F089
:10018E008067EF4E7005BD80D780C3EF8BF0A4ACB7
:10019E00F0EE8BF0A42CFCE435F0F8EF8AF0A42CF2
:1001AE00E5F038FCE433CB8DF0A42CFCE5F03BF805
:1001BE00EE8AF0A42CFCE5F038F8E433CF89F0A4F5
:1001CE002CFCE5F038CF3400CE89F0A42FFFE5F0FB
:1001DE003EFEE433C98DF0A42EFEE5F039CD8AF053
:1001EE00A42FFFE5F03EFEE43DFD33D0E0FB5007CB
:1001FE000BBB000F0203D5EC2CFCEF33FFEE33FEEE
:06020E00ED33FD0203AD1B
:100214000203D5EC5D046005E8590470030203CBC6
:10022400120396580460F6EC4860F2EC7004FDFE8C
:10023400FF22C860DB2481C85009C39860025006BD
:100244000203D29850CAF582E9294B4A7005AB8261
:100254000203C175F0007C1A7880C3EF9BEE9AED1F
:1002640099400DC3EF9BFFEE9AFEED99FDE842F035
:10027400DC23ACF0D0E0FFD0E0FED0E0FDAB822088
:10028400E7101BEB60BAEC2CFCEF33FFEE33FEED12
:1002940033FD0203ADE803F830E705C0F075F00064
:1002A400EF2FFFEE33FEED33FD40B830E7C280AAF6
:1002B40074F8CC6480CCC86480C8F582046043C3FD
:1002C400EB9FF5F0EA9E42F0E99D42F0E89C45F090
:1002D40060305018E5825FFFE582F42B5582FB50B5
:1002E400210ABA001D09B90019088016E5825BFBD2
:1002F400E582F42F5582FF50090EBE00050DBD00A6
:10030400010CC3EB9FF5F0EA9E42F0E99D42F0E850
:0D0314009C45F06007CC4820E701B3EC22C7
:1003210075F020800E75F010800575F0087D007E57
:10033100007F003392D530D5031207D0EC33401043
:10034100EF33FFEE33FEED33FDEC33FCD5F0ED2260
:0E035100E5F0247EA2D513CC92E7CDCEFF229C
:10035F00EDD2E7CD33EC3392D524814006E4FFFE96
:10036F00FDFC22FCE4CFCECDCC24E0501174FF80F5
:10037F00EDC3CC13CCCD13CDCE13CECF13CF047092
:07038F00F030D5DE0207D0BB
:10039600E9D2E7C933E833F892D5EDD2E7CD33ECAD
:0703A60033FC5002B2D52226
:1003AD00EC30E7100FBF000C0EBE00080DBD0004B1
:1003BD000BEB6014A2D5EB13FCED92E7FD2274FF5D
:1003CD00FCFDFEFF22E480F8A2D574FF13FC7D80B6
:0303DD00E480EFCA
:03000000021C8857
:0C1C8800787FE4F6D8FD75815C021CCF6B
:1003E000E709F608DFFA8046E709F208DFFA803EFF
:1003F00088828C83E709F0A3DFFA8032E309F608EC
:10040000DFFA8078E309F208DFFA807088828C8353
:10041000E309F0A3DFFA806489828A83E0A3F60807
:10042000DFFA805889828A83E0A3F208DFFA804CE1
:1004300080D280FA80C680D4806980F280338010B8
:1004400080A680EA809A80A880DA80E280CA803321
:1004500089828A83ECFAE493A3C8C582C8CCC58399
:10046000CCF0A3C8C582C8CCC583CCDFE9DEE78069
:100470000D89828A83E493A3F608DFF9ECFAA9F0E8
:10048000EDFB2289828A83ECFAE0A3C8C582C8CC3E
:10049000C583CCF0A3C8C582C8CCC583CCDFEADE57
:1004A000E880DB89828A83E493A3F208DFF980CCB9
:1004B00088F0EF60010E4E60C388F0ED2402B404B2
:1004C0000050B9F582EB2402B4040050AF23234559
:0604D0008223900430734A
:1004D600C2D530F707B2D563F0FF05F030E70CB2AE
:1004E600D5F4048463F0FF05F080018430D502F46E
:0204F6000422DE
:1004F800BB010689828A83E0225002E722BBFE0202
:09050800E32289828A83E4932234
:10051100BB010CE58229F582E5833AF583E022509F
:1005210006E92582F8E622BBFE06E92582F8E222E9
:0D053100E58229F582E5833AF583E4932203
:10053E00BB010989828A83F8E028F022500327F74D
:10054E0022BBFE05F8E328F3228A838982F8E4931E
:02055E00282251
:10056000BB010689828A83F0225002F722BBFE017A
:02057000F32274
:10057200F8BB010DE58229F582E5833AF583E8F0BF
:10058200225006E92582C8F622BBFE05E92582C86B
:02059200F22253
:10059400EF8DF0A4A8F0CF8CF0A428CE8DF0A42E7B
:0205A400FE2235
:1005A600BC000BBE0029EF8DF084FFADF022E4CC39
:1005B600F875F008EF2FFFEE33FEEC33FCEE9DEC02
:1005C600984005FCEE9DFE0FD5F0E9E4CEFD22ED48
:1005D600F8F5F0EE8420D21CFEADF075F008EF2F92
:1005E600FFED33FD4007985006D5F0F222C398FD83
:0505F6000FD5F0EA2220
:1005FB00C2D5EC30E709B2D5E4C39DFDE49CFCEE1B
:10060B0030E715B2D5E4C39FFFE49EFE1205A6C3E7
:10061B00E49DFDE49CFC80031205A630D507C3E4E2
:06062B009FFFE49EFE2289
:10063100BB010A89828A83E0F5F0A3E02250068794
:10064100F009E71922BBFE07E3F5F009E319228956
:0B065100828A83E493F5F07401932289
:10065C00BB0110E58229F582E5833AF583E0F5F0DC
:10066C00A3E0225009E92582F886F008E622BBFEB9
:10067C000AE92582F8E2F5F008E222E5832AF583FF
:08068C00E993F5F0A3E99322C4
:10069400BB010A89828A83F0E5F0A3F0225006F7B1
:0F06A40009A7F01922BBFE06F3E5F009F31922AE
:1006B300E88FF0A4CC8BF0A42CFCE98EF0A42CFCE6
:1006C3008AF0EDA42CFCEA8EF0A4CDA8F08BF0A464
:1006D3002DCC3825F0FDE98FF0A42CCD35F0FCEBC3
:1006E3008EF0A4FEA9F0EB8FF0A4CFC5F02ECD3988
:0F06F300FEE43CFCEAA42DCE35F0FDE43CFC22F5
:1007020075F008758200EF2FFFEE33FECD33CDCCAE
:1007120033CCC58233C5829BED9AEC99E582984031
:100722000CF582EE9BFEED9AFDEC99FC0FD5F0D60E
:10073200E4CEFBE4CDFAE4CCF9A88222B800C1B938
:100742000059BA002DEC8BF084CFCECDFCE5F0CB76
:10075200F97818EF2FFFEE33FEED33FDEC33FCEBAF
:1007620033FB10D703994004EB99FB0FD8E5E4F96A
:10077200FA227818EF2FFFEE33FEED33FDEC33FC57
:10078200C933C910D7059BE99A4007EC9BFCE99A4B
:10079200F90FD8E0E4C9FAE4CCFB2275F010EF2F90
:1007A200FFEE33FEED33FDCC33CCC833C810D70790
:1007B2009BEC9AE899400AED9BFDEC9AFCE899F8CB
:0E07C2000FD5F0DAE4CDFBE4CCFAE4C8F9225E
:10218C00C2D5E830E70FB2D5E4C39BFBE49AFAE47E
:10219C0099F9E498F8EC30E717B2D51221C212077E
:1021AC003EE4C39BFBE49AFAE499F9E498F88003C3
:1021BC0012073E30D50DE4C39FFFE49EFEE49DFD67
:0421CC00E49CFC2271
:0E07D000C3E49FFFE49EFEE49DFDE49CFC223A
:1007DE00EB9FF5F0EA9E42F0E99D42F0E89C45F071
:0107EE0022E8
:1007EF00E8600FECC313FCED13FDEE13FEEF13FFE8
:0307FF00D8F1220C
:10080200E86010ECA2E713FCED13FDEE13FEEF130C
:04081200FFD8F022F9
:10081600E8600FEFC333FFEE33FEED33FDEC33FC40
:03082600D8F122E4
:0D082900E6FB08E6F908E6FA08E6CBF8223F
:0C083600ECF608EDF608EEF608EFF622EE
:0C084200ECF0A3EDF0A3EEF0A3EFF02229
:10084E00D083D082E4937012740193700DA3A3939E
:10085E00F8740193F5828883E4737402936C7012BA
:10086E007403936D700C7404936E70067405936F1D
:0A087E0060DDA3A3A3A3A3A380CA17
:10088800EF4E6012EF60010EEDBB010B89828A8387
:10089800F0A3DFFCDEFA2289F05007F709DFFCA994
:0C08A800F022BBFEFCF309DFFCA9F022EB
:101C940002127EE493A3F8E493A34003F68001F2D6
:101CA40008DFF48029E493A3F85407240CC8C33351
:101CB400C4540F4420C8834004F456800146F6DF20
:101CC400E4800B0102040810204080902361E47E2C
:101CD400019360BCA3FF543F30E509541FFEE49315
:101CE400A360010ECF54C025E060A840B8E493A3DC
:101CF400FAE493A3F8E493A3C8C582C8CAC583CA07
:101D0400F0A3C8C582C8CAC583CADFE9DEE780BEBE
:012383000059
:00000001FF
